:100000000C9436000C945E000C945E000C945E0020
:100010000C945E000C945E000C945E000C945E00E8
:100020000C945E000C945E000C945E000C945E00D8
:100030000C945E000C945E000C945E000C945E00C8
:100040000C94FD020C945E000C94CB020C94A5025F
:100050000C945E000C945E000C945E000C945E00A8
:100060000C945E000C945E0047035E0511241FBED5
:10007000CFEFD8E0DEBFCDBF11E0A0E0B1E0ECE40F
:10008000F0E102C005900D92A038B107D9F722E047
:10009000A0E8B1E001C01D92AC33B207E1F710E077
:1000A000C5E3D0E004C02197FE010E946A05C43375
:1000B000D107C9F70E9485030C9419080C9400001D
:1000C0000895CF92DF92EF92FF920F931F93CF93F9
:1000D000DF936C017A018B01C0E0D0E0CE15DF0523
:1000E00089F0D8016D918D01D601ED91FC910190BF
:1000F000F081E02DC6010995892B11F47E0102C023
:100100002196ECCFC701DF91CF911F910F91FF9006
:10011000EF90DF90CF900895FC01918D828D98171C
:1001200061F0828DDF01A80FB11D5D968C91928DDB
:100130009F5F9F73928F90E008958FEF9FEF0895D8
:10014000FC01918D828D981731F0828DE80FF11DA1
:10015000858D90E008958FEF9FEF0895FC01918DBC
:10016000228D892F90E0805C9F4F821B91098F73B5
:100170009927089589E891E00E94AE0021E0892B3B
:1001800009F420E0822F0895FC01848DDF01A80F7F
:10019000B11DA35ABF4F2C91848D90E001968F73AF
:1001A0009927848FA689B7892C93A089B1898C91CE
:1001B00080648C93938D848D981306C00288F38994
:1001C000E02D80818F7D80830895EF92FF920F93C1
:1001D0001F93CF93DF93EC0181E0888F9B8D8C8DF3
:1001E000981305C0E889F989808185FD24C0F62E21
:1001F0000B8D10E00F5F1F4F0F731127E02E8C8DBA
:10020000E8120CC00FB607FCFACFE889F9898081A3
:1002100085FFF5CFCE010E94C400F1CF8B8DFE018A
:10022000E80FF11DE35AFF4FF0820B8FEA89FB893B
:100230008081806207C0EE89FF896083E889F9893F
:1002400080818064808381E090E0DF91CF911F9175
:100250000F91FF90EF900895CF93DF93EC01888D7D
:100260008823C9F0EA89FB89808185FD05C0A889BA
:10027000B9898C9186FD0FC00FB607FCF5CF808140
:1002800085FFF2CFA889B9898C9185FFEDCFCE018A
:100290000E94C400E7CFDF91CF91089580E090E005
:1002A000892B29F00E94BA0081110C940000089556
:1002B000CF93DF93E6E2F2E0448155816081718162
:1002C00089E891E00E946100EC0142E050E066E1C3
:1002D00071E089E891E00E9461008C0F9D1FDF9121
:1002E000CF9108950E9467070F931F93CF93DF93D9
:1002F0008C01EB01FC01808191810097B1F0688154
:1003000079816115710579F0428153812C813D819C
:100310004217530740F00E9475078C819D81F801B8
:100320009583848313C00E94050688819981F80112
:10033000918380838A819B81938382838C819D8139
:1003400095838483198218821B821A821D821C82E3
:10035000DF91CF911F910F910895CF93DF93EC011F
:1003600088819981009711F00E94050619821882F0
:100370001D821C821B821A82DF91CF910895FC019D
:10038000808191810C9405060F931F93CF93DF9387
:10039000EC0188819981009729F02A813B812617F9
:1003A000370788F48B016F5F7F4F0E949D0600978F
:1003B00061F0998388831B830A832C813D81232BE1
:1003C00011F4FC01108281E001C080E0DF91CF9147
:1003D0001F910F910895EF92FF920F931F93CF9368
:1003E000DF93FC01248135816115710511F480E0F2
:1003F00019C041155105A9F07B01EC018A01020FDA
:10040000131FB8010E94C401882389F32881398110
:100410008C819D81B701820F931F0E9475071D83F8
:100420000C8381E0DF91CF911F910F91FF90EF90AE
:100430000895EF92FF920F931F93CF93DF93CDB761
:10044000DEB728970FB6F894DEBF0FBECDBF7C0194
:10045000CB014AE08E010F5F1F4FB8010E947C075D
:10046000F80101900020E9F73197AF01401B510BD3
:10047000B801C7010E94EB01811103C0C7010E94AE
:10048000AD01C70128960FB6F894DEBF0FBECDBFF1
:10049000DF91CF911F910F91FF90EF900895EF9210
:1004A000FF920F931F93CF93DF93EC017B018A019F
:1004B000BA010E94C401811104C0CE010E94AD01A5
:1004C00007C01D830C83B701888199810E9475073D
:1004D000CE01DF91CF911F910F91FF90EF90089582
:1004E000CF93DF93EC01FB018617970761F06081E2
:1004F00071816115710529F0448155810E944F0277
:1005000002C00E94AD01CE01DF91CF910895FC01A0
:100510001182108213821282158214820C9470024E
:10052000FC011182108213821282158214826115DD
:10053000710551F0FB0101900020E9F73197AF01FF
:10054000461B570B0C944F0208951F920F920FB643
:100550000F9211242F933F934F935F936F937F9349
:100560008F939F93AF93BF93EF93FF9389E891E0AD
:100570000E94C400FF91EF91BF91AF919F918F9125
:100580007F916F915F914F913F912F910F900FBE8F
:100590000F901F9018951F920F920FB60F92112473
:1005A0002F938F939F93EF93FF93E0919901F09195
:1005B0009A018081E0919F01F091A00182FD12C01B
:1005C00090818091A2018F5F8F732091A301821788
:1005D00051F0E091A201F0E0E757FE4F958F809334
:1005E000A20101C08081FF91EF919F918F912F9186
:1005F0000F900FBE0F901F9018951F920F920FB67D
:100600000F9211242F933F938F939F93AF93BF9398
:100610008091850190918601A0918701B091880118
:100620003091840123E0230F2D3720F40196A11D82
:10063000B11D05C026E8230F0296A11DB11D209310
:1006400084018093850190938601A0938701B093E4
:1006500088018091800190918101A0918201B091E7
:1006600083010196A11DB11D8093800190938101AA
:10067000A0938201B0938301BF91AF919F918F911D
:100680003F912F910F900FBE0F901F901895E9E8A2
:10069000F1E01382128288EE93E0A0E0B0E0848360
:1006A0009583A683B7838AE091E09183808385EC6C
:1006B00090E09587848784EC90E09787868780EC2C
:1006C00090E0918B808B81EC90E0938B828B82EC1D
:1006D00090E0958B848B86EC90E0978B868B118EC7
:1006E000128E138E148E68E171E082E392E00E9414
:1006F000900268E171E08CE292E00E94900268E171
:1007000071E086E292E00C949002CF93DF93CDB734
:10071000DEB764970FB6F894DEBF0FBECDBF7894F6
:1007200084B5826084BD84B5816084BD85B58260F6
:1007300085BD85B5816085BD80916E0081608093A7
:100740006E00109281008091810082608093810010
:100750008091810081608093810080918000816020
:10076000809380008091B10084608093B10080917B
:10077000B00081608093B00080917A0084608093A3
:100780007A0080917A00826080937A0080917A006A
:10079000816080937A0080917A00806880937A00EB
:1007A0001092C100E0919901F0919A0182E080835A
:1007B000E0919501F09196011082E0919701F091FE
:1007C00098018FEC80831092A101E0919D01F0913E
:1007D0009E0186E08083E0919B01F0919C018081E5
:1007E00080618083E0919B01F0919C018081886011
:1007F0008083E0919B01F0919C01808180688083DF
:10080000E0919B01F0919C0180818F7D808369E163
:1008100071E08E010F5F1F4FC8010E949002B80166
:1008200082E392E00E947401C8010E94BF0164E269
:1008300071E0C8010E949002B8018CE292E00E942F
:100840007401C8010E94BF0168E171E0C8010E9403
:100850009002B80186E292E00E947401C8010E94F1
:10086000BF014AE250E060E371E089E891E00E9454
:10087000610042E050E066E171E089E891E00E94A9
:10088000610042E050E066E171E089E891E00E9499
:10089000610062E372E0C8010E9487026BE770E0CA
:1008A000C8010E941902BC0186E292E00E94700217
:1008B000C8010E94BF010E94580162E372E0CE01AC
:1008C0000F960E9487022AE0A80165E17DEC8BE586
:1008D00097E00E948707F80101900020E9F731971F
:1008E000AF01401B510BB801CE010F960E94EB01E6
:1008F000811104C0CE010F960E94AD01BE01615F5F
:100900007F4F86E292E00E947002CE010F960E9415
:10091000BF010E94580162E372E0C8010E94870291
:1009200081E48F87188A41E050E0BE01615F7F4F0C
:10093000C8010E94EB01811103C0C8010E94AD01F2
:10094000B80186E292E00E947002C8010E94BF01D5
:100950000E94580162E372E0C8010E94870243E0EE
:1009600050E06BE571E0C8010E94EB01882309F4B7
:10097000A1C0B80186E292E00E947002C8010E9404
:10098000BF010E94580162E372E0C8010E94870221
:10099000409130025091310260912C0270912D02F1
:1009A000C8010E94EB01811103C0C8010E94AD0182
:1009B000B80186E292E00E947002C8010E94BF0165
:1009C0000E94580180E480937C0080917A008064CA
:1009D00080937A0080917A0086FDFCCFE0907800C9
:1009E00080917900F12CF82A4EE050E06FE571E03B
:1009F00082E392E00E944F0262E372E0C8010E942B
:100A00008702B701C8010E941902BC0186E292E088
:100A10000E947002C8010E94BF010E9458018FB756
:100A2000F894409185015091860160918701709101
:100A300088018FBF40E150E06EE671E082E392E012
:100A40000E944F028FB7F894C0908501D090860124
:100A5000E0908701F09088018FBF62E372E0CE01E1
:100A60000F960E9487022AE0A801C701B6010E94E2
:100A70009607F80101900020E9F73197AF01401B7C
:100A8000510BB801CE010F960E94EB01811104C0F9
:100A9000CE010F960E94AD01BE01615F7F4F86E2DD
:100AA00092E00E947002CE010F960E94BF010E9448
:100AB0005801FFCFC8010E94AD015BCF86E292E0F2
:100AC0000E94BF018CE292E00E94BF0182E392E0AB
:100AD0000C94BF01EE0FFF1F0590F491E02D0994D7
:100AE000CF93DF938230910510F482E090E0E091A3
:100AF0003A02F0913B0220E030E0C0E0D0E03097D5
:100B000011F14081518148175907C0F04817590722
:100B100061F482819381209719F09B838A832BC093
:100B200090933B0280933A0226C02115310519F0BB
:100B30004217530718F49A01BE01DF01EF0102804A
:100B4000F381E02DDCCF2115310509F1281B390B8C
:100B50002430310590F412968D919C911397611574
:100B6000710521F0FB019383828304C090933B02C3
:100B700080933A02FD01329644C0FD01E20FF31F5B
:100B800081939193225031092D933C933AC0209147
:100B9000380230913902232B41F420910201309127
:100BA00003013093390220933802209100013091E3
:100BB00001012115310541F42DB73EB740910401E3
:100BC00050910501241B350BE0913802F091390258
:100BD000E217F307A0F42E1B3F0B2817390778F014
:100BE000AC014E5F5F4F2417350748F04E0F5F1F73
:100BF00050933902409338028193919302C0E0E010
:100C0000F0E0CF01DF91CF9108950F931F93CF9321
:100C1000DF93009709F48CC0FC0132971382128293
:100C200000913A0210913B020115110581F42081D7
:100C30003181820F931F2091380230913902281799
:100C4000390779F5F0933902E093380271C0D80181
:100C500040E050E0AE17BF0750F412962D913C9142
:100C60001397AD012115310509F1D901F3CF9D018C
:100C7000DA013383228360817181860F971F821787
:100C8000930769F4EC0128813981260F371F2E5F05
:100C90003F4F318320838A819B8193838283452BBD
:100CA00029F4F0933B02E0933A0242C01396FC937E
:100CB000EE931297ED01499159919E01240F351F32
:100CC000E217F30771F480819181840F951F0296DA
:100CD00011969C938E938281938113969C938E930D
:100CE0001297E0E0F0E0D80112968D919C91139755
:100CF000009719F0F8018C01F6CF8D919C91980125
:100D00002E5F3F4F820F931F20913802309139029E
:100D10002817390769F4309729F410923B02109292
:100D20003A0202C0138212821093390200933802F1
:100D3000DF91CF911F910F910895A0E0B0E0E3EA19
:100D4000F6E00C94E607EC01009721F4CB010E9439
:100D50007005B8C0FC01E60FF71F9C012250310955
:100D6000E217F30708F4ACC0D9010D911C9111975B
:100D700006171707B0F00530110508F49FC0C80129
:100D800004978617970708F499C002501109061BAB
:100D9000170B019311936D937C93CF010E9405066D
:100DA0008DC05B01A01AB10A4C01800E911EA0916A
:100DB0003A02B0913B0240E050E0E12CF12C109758
:100DC00009F44AC0A815B905D1F56D907C9011972A
:100DD000630182E0C80ED11CCA14DB0480F1A301B8
:100DE0004A195B096A0182E0C80ED11C1296BC90B8
:100DF00012971396AC91B5E0CB16D10440F0B282B5
:100E0000A38351834083D9016D937C930AC00E5F05
:100E10001F4FC301800F911FF90191838083EB2D38
:100E2000FA2FE114F10431F0D7011396FC93EE93FD
:100E3000129744C0F0933B02E0933A023FC08D9179
:100E40009C9111974817590708F4AC017D0112963F
:100E50000D90BC91A02DB3CF8091380290913902B2
:100E600088159905E1F446175707C8F480910001E9
:100E700090910101009741F48DB79EB74091040114
:100E800050910501841B950BE817F907C8F4F093FE
:100E90003902E0933802F901718360830FC0CB01FE
:100EA0000E9470057C01009759F0A801BE010E94C4
:100EB0006C07CE010E940506C70104C0CE0102C026
:100EC00080E090E0CDB7DEB7EEE00C94020881E060
:100ED00090E0F8940C941908FB01DC0102C0019029
:100EE0000D9241505040D8F70895FB01DC0101906C
:100EF0000D920020E1F70895BB274A3031F4992381
:100F000022F4BDE2909581959F4F0C94B907BB27C1
:100F10002A3051F4992342F4BDE290958095709562
:100F200061957F4F8F4F9F4F0C949707BB27FA0116
:100F3000A62F6217710581059105330B30FB66F012
:100F4000AA27660F771F881F991FAA1FA21710F0E4
:100F5000A21B63953850A9F7A05DAA3308F0A95DDC
:100F6000A19336F7B111B1931082CA010C94D20744
:100F7000BB27FB015527AA27880F991FAA1FA41773
:100F800010F0A41B83955051B9F7A05DAA3308F067
:100F9000A95DA193009779F7B111B1931192CB019B
:100FA0000C94D207DC01FC01672F71917723E1F7E4
:100FB000329704C07C916D9370836291AE17BF0726
:100FC000C8F308952F923F924F925F926F927F9253
:100FD0008F929F92AF92BF92CF92DF92EF92FF9249
:100FE0000F931F93CF93DF93CDB7DEB7CA1BDB0BF5
:100FF0000FB6F894DEBF0FBECDBF09942A8839889A
:1010000048885F846E847D848C849B84AA84B984A0
:10101000C884DF80EE80FD800C811B81AA81B981AC
:10102000CE0FD11D0FB6F894DEBF0FBECDBFED01C0
:10103000089510E0C5E3D0E004C0FE010E946A05F7
:0C1040002196C633D107C9F7F894FFCF02
:10104C0000003C02800000000000E5006100AE00E2
:10105C008C00A0002C010D0A00596F75206164648E
:10106C00656420007468697320737472696E67001C
:10107C000A0A416464696E6720737472696E6773DF
:10108C0020746F6765746865722028636F6E636186
:10109C0074656E6174696F6E293A00616263005306
:1010AC00656E736F722076616C75653A20006D69A0
:1010BC006C6C697328292076616C75653A20000088
:00000001FF
